:020000040800F2
:1000000000500020DD070008D9070008D7070008C6
:10001000D7070008D7070008D7070008000000002E
:10002000000000000000000000000000D9070008E8
:10003000D907000800000000D9070008D907000808
:10004000D7070008D7070008D7070008D707000818
:10005000D7070008D707000811020008D7070008D3
:10006000D7070008D7070008D7070008D7070008F8
:10007000D7070008D7070008D7070008D7070008E8
:10008000D7070008D7070008D7070008D7070008D8
:10009000D7070008D7070008D7070008D7070008C8
:1000A000D7070008D7070008D7070008D7070008B8
:1000B00051010008D7070008D7070008D707000834
:1000C000D7070008D7070008D7070008D707000898
:1000D000D7070008D7070008D7070008D707000888
:1000E000D7070008D7070008D7070008D707000878
:1000F000D7070008D7070008D7070008D707000868
:10010000D7070008D7070008D7070008D707000857
:10011000D7070008D7070008D7070008D707000847
:10012000D7070008D7070008D7070008D707000837
:10013000D7070008D7070008D7070008D707000827
:10014000D7070008D7070008D7070008D707000817
:1001500080B500AF01214FF0804000F023FB034643
:10016000002B49D001214FF0804000F021FB234BB0
:100170001B680133214A1360204B1B68132B3BD9AA
:100180001E4B00221A6001214FF0804000F005FB59
:100190004FF0804000F014FB194B00221A7001212F
:1001A000184800F093F90346002B1FD1164B1B781B
:1001B000DBB2002B14BF01230023DBB283F0010369
:1001C000DBB203F00103DAB20F4B1A700E4B1B784F
:1001D000DBB2002B05D04FF400510C4800F073F94E
:1001E00004E04FF40051094800F06BF9012000F0E1
:1001F000E3F8012000F0C2F800BF80BD100000202D
:100200000C000020000801401400002000100140F4
:1002100080B500AF012000F0BFF8012000F0CCF85D
:100220000A4B01221A700A4B00221A6000214FF07B
:10023000804000F0CEFA01214FF0804000F0A9FA92
:100240004FF0804000F0B7FA00BF80BD0C000020E6
:100250001000002080B500AF40F2023000F08CFAB0
:100260004FF4417000F088FA4FF40053002202214D
:10027000094800F0F7F84FF40051074800F021F961
:100280000121064800F01DF9012302220021034844
:1002900000F0E8F800BF80BD0010014000080140F8
:1002A00080B500AF4FF4407000F066FA07490120B6
:1002B00000F088F80121012000F03CF8012000F056
:1002C0005DF8062000F0D4FA00BF80BD00080140B0
:1002D00080B500AF4FF4607000F04EFA41F61F4158
:1002E0004FF0804000F071FA084B1B68084AA2FBEF
:1002F00003239B0D013B19464FF0804000F067FA45
:100300001C2000F0B5FA00BF80BD00BF0000002037
:10031000B17C219580B500AF054800F0CFF9FFF71B
:1003200099FFFFF7BDFFFFF7D3FF00BFFDE700BF59
:100330000C09000801290FD0022918D059B90E4B19
:10034000D3F808240243C3F80824D3F80C2422EA83
:100350000002C3F80C247047074BD3F8082422EAA4
:100360000002C3F80824D3F80C240243F1E7024B3F
:10037000D3F808240243F4E700000140054BD3F80A
:1003800000240243C3F80024D3F804240243C3F832
:100390000424704700000140064BD3F8002422EAF1
:1003A0000002C3F80024D3F8042422EA0002C3F8B0
:1003B0000424704700000140014BC3F81404704747
:1003C000000001402DE9F04F844600224FF0010E5D
:1003D0000F271E4EDFF87880DFF87890DFF878A0DE
:1003E0000EFA02F313EA0C0F19D01C4B994225D0D8
:1003F0001AD8414524D0494524D0A1EB0A004342F4
:10040000434106EB9204A40002F003052068AD000E
:1004100007FA05FB20EA0B00AB40184320600132CD
:10042000102ADDD1BDE8F08F0D4B99420CD003F5B9
:10043000806399420CBF06230023E2E70423E0E730
:100440000223DEE70323DCE70523DAE7024000109E
:100450000010014000140140000C01400018014050
:10046000001C01402DE9F0414FF00F0C00250768FA
:10047000466843FA05F4E4071CD5072D94BFBE4631
:10048000B646ACB24FEA84048ABF203CA4B2A4B200
:100490000CFA04F82EEA080804F1020E02FA0EFE25
:1004A00001FA04F44EEA040444EA0804072D94BF58
:1004B000274626460135102DDBD107604660BDE892
:1004C000F08101617047090401617047806808404C
:1004D00070470000062824D8DFE800F004090E1356
:1004E000181D2000104B1868C0F3406070470E4B79
:1004F0001868C0F3C06070470B4B1868C0F34070B9
:100500007047094B1868C0F340407047064B1868A5
:10051000C0F340007047044B186AF9E7024B586A71
:10052000F6E70020704700BF00100240024608B501
:100530001046FFF7CFFF0028FAD008BD06282AD8BA
:10054000DFE800F0040A0F14191E2400124A136891
:1005500043F08073136070470F4A136843F0806361
:10056000F8E70D4A136843F08053F3E70A4A13682B
:1005700043F48033EEE7084A136843F00103E9E7E8
:10058000054A136A43F0010313627047024A536A33
:1005900043F001035362704700100240034A53685E
:1005A00023F0030303435360704700BF0010024071
:1005B000034A536823F4701343EA8043536070473F
:1005C00000100240034AD36A23F4706343EA002315
:1005D000D362704700100240034AD36A23F4704389
:1005E00043EA0033D362704700100240034A536865
:1005F00023F4803343EA0043536070470010024005
:10060000034A536823F4003343EA4043536070477E
:1006100000100240034A536823F4404343EA803306
:100620005360704700100240034A536823F460533C
:1006300043EAC0235360704700100240034A5368E6
:1006400023F4E06343EA0023536070470010024044
:10065000034A536823F0F00343EA001353607047E2
:1006600000100240044B5A6818B142F480025A60EC
:10067000704722F48002FAE700100240034AD36A6E
:1006800023F00F030343D362704700BF0010024002
:10069000034AD36A23F0F00343EA0013D36270479E
:1006A00000100240044BDA6A18B142F48032DA6278
:1006B000704722F48032FAE70010024010B5044679
:1006C0004378012B0CBF03200420FFF737FFFFF70F
:1006D0002DFFA078FFF7BCFFE078FFF7AFFF207990
:1006E000FFF7A2FF6079FFF795FF207BFFF7BAFFC6
:1006F000A07900F0C9F82078FFF75AFF6078FFF77B
:1007000075FFE07901282DD9FFF7B8FF207A08B1ED
:10071000FFF7C8FF607A08B1FFF7BAFFA07A30B1DF
:10072000FFF750FF0120FFF709FFFFF7FFFEE07A18
:1007300030B1FFF751FF0220FFF700FFFFF7F6FE91
:100740000020FFF7FBFEFFF7F1FE0220FFF726FF78
:100750002269064B1A606269054B1A60A269054B53
:100760001A6010BDFFF74CFFD0E700BF000000206B
:1007700008000020040000200122430903F1804307
:1007800003F50433196800F01F0082400A431A6021
:100790007047C3680B43C3607047C36823EA010313
:1007A000C360704703690B4214BF012000207047EB
:1007B000C94301617047036843F001030360704758
:1007C000036823F001030360704781627047C162D0
:1007D000704741627047FEE77047000038B51A4A1B
:1007E0001A4B1B498B421AD300211A4A93421BD33E
:1007F0004FF0E022D2F8143D174C43F40073174D2C
:10080000C2F8143DAC4212D3154C164DAC4212D373
:10081000FFF780FD144C154DAC4210D338BD52F893
:10082000040B43F8040BDDE743F8041BDEE754F840
:10083000043B9847E6E754F8043B9847E6E754F84A
:10084000043B9847E8E700BF2809000800000020A3
:100850000C000020180000201800002018000020C4
:1008600018000020180000201800002018000020A8
:10087000012243099B0003F1604300F01F0003F5D0
:10088000614382401A607047034A136823F00703EC
:1008900003431360704700BF0020024004010004BE
:1008A00000020200000000000000000000A24A0454
:1008B0000051250200A24A040701000400020201BF
:1008C000000000000000000000A24A0400512502C0
:1008D00000A24A0407010004000202040104060009
:1008E0000000000000A24A040051250200A24A04B0
:1008F00001010000000000000000000000000000F6
:1009000000366E0100366E0100366E0107010004EC
:1009100000030200000000000000000000A24A04E2
:080920000051250200A24A0467
:0C09280000127A0000127A0000127A001F
:04000005080007DD0B
:00000001FF
