:020000040800F2
:100000000050002065050008610500085F05000834
:100010005F0500085F0500085F050008000000009C
:100020000000000000000000000000006105000862
:100030006105000800000000610500086105000876
:100040005F0500085F0500085F0500085F05000800
:100050005F0500085F0500085F0500085F050008F0
:100060005F0500085F0500085F0500085F050008E0
:100070005F0500085F0500085F0500085F050008D0
:100080005F0500085F0500085F0500085F050008C0
:100090005F0500085F0500085F0500085F050008B0
:1000A0005F0500085F0500085F0500085F050008A0
:1000B0005F0500085F0500085F0500085F05000890
:1000C0005F0500085F0500085F0500085F05000880
:1000D0005F0500085F0500085F0500085F05000870
:1000E0005F0500085F0500085F0500085F05000860
:1000F0005F0500085F0500085F0500085F05000850
:100100005F0500085F0500085F0500085F0500083F
:100110005F0500085F0500085F0500085F0500082F
:100120005F0500085F0500085F0500085F0500081F
:100130005F0500085F0500085F0500085F0500080F
:100140005F0500085F0500085F0500085F050008FF
:1001500080B483B000AF786000E000BF7B685A1EB7
:100160007A60002BF9D100BF00BF0C37BD4680BCC0
:10017000704780B584B000AF294800F085F94FF48E
:10018000417000F0DFF940F2023000F0DBF94FF48B
:10019000005300220221234800F04AF84FF4005196
:1001A000204800F074F801211F4800F070F8012386
:1001B000022200211C4800F03BF80123FB600023D1
:1001C000BB600121184800F067F803467B60FB68BC
:1001D000002B21D07B68002B1ED11448FFF7B8FFFD
:1001E0000121114800F058F80346002B14D1BB68D8
:1001F000002B0CBF01230023DBB2BB60BB68002BCC
:1002000005D04FF40051074800F043F804E04FF4E4
:100210000051044800F03BF87B68FB60D1E700BF69
:100220007C0600080010014000080140A086010083
:100230002DE9F0414FF00F0C00250768466843FA9E
:1002400005F4E4071CD5072D94BFBE46B646ACB2F4
:100250004FEA84048ABF203CA4B2A4B20CFA04F88A
:100260002EEA080804F1020E02FA0EFE01FA04F466
:100270004EEA040444EA0804072D94BF27462646A4
:100280000135102DDBD107604660BDE8F0810161CA
:10029000704709040161704780680840704700009A
:1002A000062824D8DFE800F004090E13181D2000EA
:1002B000104B1868C0F3406070470E4B1868C0F3CD
:1002C000C06070470B4B1868C0F340707047094B13
:1002D0001868C0F340407047064B1868C0F34000F0
:1002E0007047044B186AF9E7024B586AF6E700209A
:1002F000704700BF00100240024608B51046FFF7E5
:10030000CFFF0028FAD008BD06282AD8DFE800F081
:10031000040A0F14191E2400124A136843F0807354
:10032000136070470F4A136843F08063F8E70D4A83
:10033000136843F08053F3E70A4A136843F48033A9
:10034000EEE7084A136843F00103E9E7054A136A38
:1003500043F0010313627047024A536A43F00103FA
:100360005362704700100240034A536823F00303AE
:1003700003435360704700BF00100240034A5368B4
:1003800023F4701343EA8043536070470010024027
:10039000034AD36A23F4706343EA0023D3627047AD
:1003A00000100240034AD36A23F4704343EA003347
:1003B000D362704700100240034A536823F480332D
:1003C00043EA00435360704700100240034A5368F9
:1003D00023F4003343EA4043536070470010024067
:1003E000034A536823F4404343EA80335360704721
:1003F00000100240034A536823F4605343EAC023C9
:100400005360704700100240034A536823F4E063CE
:1004100043EA00235360704700100240034A5368C8
:1004200023F0F00343EA00135360704700100240CA
:10043000044B5A6818B142F480025A60704722F4A3
:100440008002FAE700100240034AD36A23F00F0348
:100450000343D362704700BF00100240034AD36ACF
:1004600023F0F00343EA0013D36270470010024008
:10047000044BDA6A18B142F48032DA62704722F42F
:100480008032FAE70010024010B504464378012B91
:100490000CBF03200420FFF737FFFFF72DFFA078E4
:1004A000FFF7BCFFE078FFF7AFFF2079FFF7A2FF6F
:1004B0006079FFF795FF207BFFF7BAFFA07900F086
:1004C0009BF82078FFF75AFF6078FFF775FFE07917
:1004D00001282DD9FFF7B8FF207A08B1FFF7C8FF30
:1004E000607A08B1FFF7BAFFA07A30B1FFF750FF8A
:1004F0000120FFF709FFFFF7FFFEE07A30B1FFF7B9
:1005000051FF0220FFF700FFFFF7F6FE0020FFF784
:10051000FBFEFFF7F1FE0220FFF726FF2269064BE4
:100520001A606269054B1A60A269054B1A6010BD1A
:10053000FFF74CFFD0E700BF0000002008000020BC
:10054000040000200122430903F1804303F5043332
:10055000196800F01F0082400A431A607047FEE7E6
:100560007047000038B51A4A1A4B1B498B421AD300
:1005700000211A4A93421BD34FF0E022D2F8143DD7
:10058000174C43F40073174DC2F8143DAC4212D31C
:10059000154C164DAC4212D3FFF7EBFD144C154D24
:1005A000AC4210D338BD52F8040B43F8040BDDE71E
:1005B00043F8041BDEE754F8043B9847E6E754F899
:1005C000043B9847E6E754F8043B9847E8E700BF48
:1005D00098060008000000200C0000200C000020FD
:1005E0000C0000200C0000200C0000200C0000205B
:1005F0000C0000200C000020034A136823F00703BE
:1006000003431360704700BF002002400401000450
:1006100000020200000000000000000000A24A04E6
:100620000051250200A24A04070100040002020151
:10063000000000000000000000A24A040051250252
:1006400000A24A040701000400020204010406009B
:100650000000000000A24A040051250200A24A0442
:100660000101000000000000000000000000000088
:1006700000366E0100366E0100366E01070100047F
:1006800000030200000000000000000000A24A0475
:080690000051250200A24A04FA
:0C06980000127A0000127A0000127A00B2
:040000050800056585
:00000001FF
