:020000040800F2
:1000000000500020510600084F0600084D06000869
:100010004D0600084D0600084D06000800000000CF
:100020000000000000000000000000004F06000873
:100030004F060008000000004F0600084F060008A9
:100040004D0600084D0600084D0600084D06000844
:100050004D0600084D0600084D0600084D06000834
:100060004D0600084D0600084D0600084D06000824
:100070004D0600084D0600084D0600084D06000814
:100080004D0600084D0600084D0600084D06000804
:100090004D0600084D0600084D0600084D060008F4
:1000A0004D0600084D0600084D0600084D060008E4
:1000B000510100084D0600084D0600084D060008D5
:1000C0004D0600084D0600084D0600084D060008C4
:1000D0004D0600084D0600084D0600084D060008B4
:1000E0004D0600084D0600084D0600084D060008A4
:1000F0004D0600084D0600084D0600084D06000894
:100100004D0600084D0600084D0600084D06000883
:100110004D0600084D0600084D0600084D06000873
:100120004D0600084D0600084D0600084D06000863
:100130004D0600084D0600084D0600084D06000853
:100140004D0600084D0600084D0600084D06000843
:1001500080B582B000AF01214FF0804000F05FFA1F
:100160000346002B47D001214FF0804000F05DFA9C
:100170000121234800F0ECF803467B60214B1B680B
:100180007A689A4234D0204B1B6801331E4A1360B0
:100190001D4B1B68132B2EDD1A4A7B6813601A4B0C
:1001A00000221A60194B1B68002B1CD0154B1B68D2
:1001B000002B18D1164B1B68002B0CBF012300230A
:1001C000DBB21A46124B1A60114B1B68002B05D08C
:1001D0004FF400510F4800F0B8F804E04FF400511C
:1001E0000C4800F0B0F8074B1B68084A136002E0A7
:1001F000054B00221A6000BF0837BD4680BD00BF16
:10020000000801400000002014000020040000202D
:10021000180000200010014080B500AF4FF441707D
:1002200000F0ECF940F2023000F0E8F94FF400532E
:1002300000220221094800F057F84FF40051074806
:1002400000F081F80121064800F07DF80123022228
:100250000021034800F048F800BF80BD00100140B5
:100260000008014080B500AF4FF4607000F0C6F99F
:100270004FF0804000F0E1F941F61F414FF080401F
:1002800000F0E0F90F4B1B680F4AA2FB03239B0D04
:10029000013B19464FF0804000F0D6F901214FF0A4
:1002A000804000F0C2F901214FF0804000F0B3F926
:1002B0001C2000F017FA4FF0804000F0B9F900BFA1
:1002C00080BD00BF08000020B17C219580B500AF43
:1002D000044800F035F9FFF79FFFFFF7C3FF00BFA9
:1002E000FDE700BF800700082DE9F0414FF00F0C3B
:1002F00000250768466843FA05F4E4071CD5072D76
:1003000094BFBE46B646ACB24FEA84048ABF203CD6
:10031000A4B2A4B20CFA04F82EEA080804F1020E02
:1003200002FA0EFE01FA04F44EEA040444EA080458
:10033000072D94BF274626460135102DDBD10760D7
:100340004660BDE8F08101617047090401617047B2
:100350008068084070470000062824D8DFE800F0D5
:1003600004090E13181D2000104B1868C0F34060DC
:1003700070470E4B1868C0F3C06070470B4B18688D
:10038000C0F340707047094B1868C0F34040704795
:10039000064B1868C0F340007047044B186AF9E731
:1003A000024B586AF6E70020704700BF0010024079
:1003B000024608B51046FFF7CFFF0028FAD008BD67
:1003C00006282AD8DFE800F0040A0F14191E2400BA
:1003D000124A136843F08073136070470F4A136822
:1003E00043F08063F8E70D4A136843F08053F3E766
:1003F0000A4A136843F48033EEE7084A136843F06F
:100400000103E9E7054A136A43F0010313627047E9
:10041000024A536A43F001035362704700100240DE
:10042000034A536823F0030303435360704700BF3C
:1004300000100240034A536823F4701343EA8043D8
:100440005360704700100240034AD36A23F470637C
:1004500043EA0023D362704700100240034AD36A84
:1004600023F4704343EA0033D36270470010024024
:10047000034A536823F4803343EA004353607047D0
:1004800000100240034A536823F4003343EA404318
:100490005360704700100240034A536823F44043FE
:1004A00043EA80335360704700100240034A5368A8
:1004B00023F4605343EAC0235360704700100240A6
:1004C000034A536823F4E06343EA00235360704710
:1004D00000100240034A536823F0F00343EA00137C
:1004E0005360704700100240044B5A6818B142F440
:1004F00080025A60704722F48002FAE7001002403E
:10050000034AD36A23F00F030343D362704700BF4B
:1005100000100240034AD36A23F0F00343EA0013B9
:10052000D362704700100240044BDA6A18B142F4FB
:100530008032DA62704722F48032FAE7001002401B
:1005400010B504464378012B0CBF03200420FFF7AD
:1005500037FFFFF72DFFA078FFF7BCFFE078FFF72C
:10056000AFFF2079FFF7A2FF6079FFF795FF207BAF
:10057000FFF7BAFFA07900F0C1F82078FFF75AFF23
:100580006078FFF775FFE07901282DD9FFF7B8FFF4
:10059000207A08B1FFF7C8FF607A08B1FFF7BAFF09
:1005A000A07A30B1FFF750FF0120FFF709FFFFF7F6
:1005B000FFFEE07A30B1FFF751FF0220FFF700FFA6
:1005C000FFF7F6FE0020FFF7FBFEFFF7F1FE02202B
:1005D000FFF726FF2269064B1A606269054B1A6015
:1005E000A269054B1A6010BDFFF74CFFD0E700BFB2
:1005F00008000020100000200C0000200122430908
:1006000003F1804303F50433196800F01F008240B2
:100610000A431A607047C3680B43C360704703699D
:100620000B4214BF012000207047C943016170478D
:10063000036843F0010303607047036823F001037C
:100640000360704781627047C1627047FEE7704780
:1006500038B51A4A1A4B1B498B421AD300211A4A41
:1006600093421BD34FF0E022D2F8143D174C43F4D1
:100670000073174DC2F8143DAC4212D3154C164D01
:10068000AC4212D3FFF722FE144C154DAC4210D3EE
:1006900038BD52F8040B43F8040BDDE743F8041BA4
:1006A000DEE754F8043B9847E6E754F8043B9847E4
:1006B000E6E754F8043B9847E8E700BF9C070008CA
:1006C00000000020140000201C0000201C0000205E
:1006D0001C0000201C0000201C0000201C0000202A
:1006E0001C000020012243099B0003F1604300F03D
:1006F0001F0003F5614382401A607047034A136884
:1007000023F0070303431360704700BF002002403B
:1007100004010004000202000000000000000000CC
:1007200000A24A040051250200A24A040701000465
:1007300000020201000000000000000000A24A04C4
:100740000051250200A24A0407010004000202042D
:10075000010406000000000000A24A040051250226
:1007600000A24A0401010000000000000000000097
:100770000000000000366E0100366E0100366E018A
:100780000701000400030200000000000000000058
:0C07900000A24A040051250200A24A0405
:10079C00010000000100000000127A0000127A0033
:0407AC0000127A00BD
:040000050800065198
:00000001FF
