:020000040800F2
:100000000050002025060008210600081F060008F1
:100010001F0600081F0600081F0600080000000059
:1000200000000000000000000000000021060008A1
:100030002106000800000000210600082106000833
:100040001F0600081F0600081F0600081F060008FC
:100050001F0600081F0600081F0600081F060008EC
:100060001F0600081F0600081F0600081F060008DC
:100070001F0600081F0600081F0600081F060008CC
:100080001F0600081F0600081F0600081F060008BC
:100090001F0600081F0600081F0600081F060008AC
:1000A0001F0600081F0600081F0600081F0600089C
:1000B0001F0600081F0600081F0600081F0600088C
:1000C0001F0600081F0600081F0600081F0600087C
:1000D0001F0600081F0600081F0600081F0600086C
:1000E0001F0600081F0600081F0600081F0600085C
:1000F0001F0600081F0600081F0600081F0600084C
:100100001F0600081F0600081F0600081F0600083B
:100110001F0600081F0600081F0600081F0600082B
:100120001F0600081F0600081F0600081F0600081B
:100130001F0600081F0600081F0600081F0600080B
:100140001F0600081F0600081F0600081F060008FB
:1001500080B500AF40F20E3000F006FA40F20230F7
:1001600000F002FA4FF4007302220221134800F05B
:100170006BF84FF4806301220021104800F064F80E
:100180004FF416510E4800F0FCF908210C4800F01D
:1001900003FA00210A4800F008FA0C21084800F090
:1001A00010FA0021064800F006FA0021044800F089
:1001B0000EFA034800F011FA00BF80BD00080140AC
:1001C0000038014080B584B000AF1C4800F060F9F1
:1001D000FFF7BEFF1A4BBB60BB68FB6008E0FB6823
:1001E0001B781946174800F0FDF9FB680133FB60E6
:1001F000FB681B78002BF2D12021124800F009FA8D
:100200000346002BF8D00F4800F0FBF90346FB71C2
:10021000FB790D2B04D10A210A4800F0E3F906E02E
:10022000FB790A2B03D10D21064800F0DBF9FB799D
:100230009BB21946034800F0D5F9DDE760070008D6
:10024000CC060008003801402DE9F0414FF00F0CBA
:1002500000250768466843FA05F4E4071CD5072D16
:1002600094BFBE46B646ACB24FEA84048ABF203C77
:10027000A4B2A4B20CFA04F82EEA080804F1020EA3
:1002800002FA0EFE01FA04F44EEA040444EA0804F9
:10029000072D94BF274626460135102DDBD1076078
:1002A0004660BDE8F0810000062824D8DFE800F0B1
:1002B00004090E13181D2000104B1868C0F340608D
:1002C00070470E4B1868C0F3C06070470B4B18683E
:1002D000C0F340707047094B1868C0F34040704746
:1002E000064B1868C0F340007047044B186AF9E7E2
:1002F000024B586AF6E70020704700BF001002402A
:10030000024608B51046FFF7CFFF0028FAD008BD17
:1003100006282AD8DFE800F0040A0F14191E24006A
:10032000124A136843F08073136070470F4A1368D2
:1003300043F08063F8E70D4A136843F08053F3E716
:100340000A4A136843F48033EEE7084A136843F01F
:100350000103E9E7054A136A43F00103136270479A
:10036000024A536A43F0010353627047001002408F
:10037000034A536823F0030303435360704700BFED
:1003800000100240034A536823F4701343EA804389
:100390005360704700100240034AD36A23F470632D
:1003A00043EA0023D362704700100240034AD36A35
:1003B00023F4704343EA0033D362704700100240D5
:1003C000034A536823F4803343EA00435360704781
:1003D00000100240034A536823F4003343EA4043C9
:1003E0005360704700100240034A536823F44043AF
:1003F00043EA80335360704700100240034A536859
:1004000023F4605343EAC023536070470010024056
:10041000034A536823F4E06343EA002353607047C0
:1004200000100240034A536823F0F00343EA00132C
:100430005360704700100240044B5A6818B142F4F0
:1004400080025A60704722F48002FAE700100240EE
:10045000034AD36A23F00F030343D362704700BFFC
:1004600000100240034AD36A23F0F00343EA00136A
:10047000D362704700100240044BDA6A18B142F4AC
:100480008032DA62704722F48032FAE700100240CC
:1004900010B504464378012B0CBF03200420FFF75E
:1004A00037FFFFF72DFFA078FFF7BCFFE078FFF7DD
:1004B000AFFF2079FFF7A2FF6079FFF795FF207B60
:1004C000FFF7BAFFA07900F0F7F82078FFF75AFF9E
:1004D0006078FFF775FFE07901282DD9FFF7B8FFA5
:1004E000207A08B1FFF7C8FF607A08B1FFF7BAFFBA
:1004F000A07A30B1FFF750FF0120FFF709FFFFF7A7
:10050000FFFEE07A30B1FFF751FF0220FFF700FF56
:10051000FFF7F6FE0020FFF7FBFEFFF7F1FE0220DB
:10052000FFF726FF2269064B1A606269054B1A60C5
:10053000A269054B1A6010BDFFF74CFFD0E700BF62
:10054000000000200800002004000020034B984217
:100550000CBF034B034B1868704700BF00380140C5
:1005600004000020080000200122430903F1804319
:1005700003F50433196800F01F0082400A431A6033
:10058000704738B50C460546FFF7E0FF00EB540313
:10059000B3FBF4F3AB6038BDC36808290CBF23F488
:1005A000805343F48053C3607047036923F440537E
:1005B0000B4303617047C36823F4C0630B43C360FC
:1005C0007047C36823F00C030B43C3607047436953
:1005D00023F440730B4343617047C36843F40053F3
:1005E000C360704738B504460D4600F00EF8294642
:1005F0002046BDE8384000F000B8C1F30801416072
:1006000070474068C0F30800704703681B06FCD5BC
:10061000704703680B4214BF012000207047FEE7BB
:100620007047000038B51A4A1A4B1B498B421AD33F
:1006300000211A4A93421BD34FF0E022D2F8143D16
:10064000174C43F40073174DC2F8143DAC4212D35B
:10065000154C164DAC4212D3FFF7B4FD144C154D9A
:10066000AC4210D338BD52F8040B43F8040BDDE75D
:1006700043F8041BDEE754F8043B9847E6E754F8D8
:10068000043B9847E6E754F8043B9847E8E700BF87
:100690007C070008000000200C0000200C00002057
:1006A0000C0000200C0000200C0000200C0000209A
:1006B0000C0000200C000020034A136823F00703FD
:1006C00003431360704700BF002002404563686F1A
:1006D0002064657364652055534152543120612074
:1006E000393630302062617564696F730D0A00001D
:1006F00004010004000202000000000000000000ED
:1007000000A24A040051250200A24A040701000485
:1007100000020201000000000000000000A24A04E4
:100720000051250200A24A0407010004000202044D
:10073000010406000000000000A24A040051250246
:1007400000A24A04010100000000000000000000B7
:100750000000000000366E0100366E0100366E01AA
:100760000701000400030200000000000000000078
:0C07700000A24A040051250200A24A0425
:0C077C0000127A0000127A0000127A00CD
:0400000508000625C4
:00000001FF
