:020000040800F2
:10000000005000206D05000869050008670500081C
:100010006705000867050008670500080000000084
:10002000000000000000000000000000690500085A
:10003000690500080000000069050008690500085E
:1000400067050008670500086705000867050008E0
:1000500067050008670500086705000867050008D0
:1000600067050008670500086705000867050008C0
:1000700067050008670500086705000867050008B0
:1000800067050008670500086705000867050008A0
:100090006705000867050008670500086705000890
:1000A0006705000867050008670500086705000880
:1000B0006705000867050008670500086705000870
:1000C0006705000867050008670500086705000860
:1000D0006705000867050008670500086705000850
:1000E0006705000867050008670500086705000840
:1000F0006705000867050008670500086705000830
:10010000670500086705000867050008670500081F
:10011000670500086705000867050008670500080F
:1001200067050008670500086705000867050008FF
:1001300067050008670500086705000867050008EF
:1001400067050008670500086705000867050008DF
:1001500080B500AF40F20E3000F0AAF940F2023054
:1001600000F0A6F94FF4007302220221134800F0B8
:1001700069F84FF4806301220021104800F062F812
:100180004FF416510E4800F0A0F908210C4800F079
:10019000A7F900210A4800F0ACF90C21084800F04A
:1001A000B4F90021064800F0AAF90021044800F043
:1001B000B2F9034800F0B5F900BF80BD0008014066
:1001C0000038014080B584B000AF00F01FF9FFF7A0
:1001D000BFFF1A4BBB60BB68FB6008E0FB681B7885
:1001E0001946174800F0A2F9FB680133FB60FB6871
:1001F0001B78002BF2D12021114800F0AEF9034604
:10020000002BF8D00E4800F0A0F90346FB71FB79F3
:100210000D2B04D10A210A4800F088F906E0FB7989
:100220000A2B03D10D21064800F080F9FB799BB21F
:100230001946034800F07AF9DDE700BF140600080C
:10024000003801402DE9F0414FF00F0C0025076800
:10025000466843FA05F4E4071CD5072D94BFBE4653
:10026000B646ACB24FEA84048ABF203CA4B2A4B222
:100270000CFA04F82EEA080804F1020E02FA0EFE47
:1002800001FA04F44EEA040444EA0804072D94BF7A
:10029000274626460135102DDBD107604660BDE8B4
:1002A000F0810000062824D8DFE800F004090E13CE
:1002B000181D2000104B1868C0F3406070470E4BAB
:1002C0001868C0F3C06070470B4B1868C0F34070EB
:1002D0007047094B1868C0F340407047064B1868D8
:1002E000C0F340007047044B186AF9E7024B586AA4
:1002F000F6E70020704700BF00100240024608B534
:100300001046FFF7CFFF0028FAD008BD06282AD8EC
:10031000DFE800F0040A0F14191E2400124A1368C3
:1003200043F08073136070470F4A136843F0806393
:10033000F8E70D4A136843F08053F3E70A4A13685D
:1003400043F48033EEE7084A136843F00103E9E71A
:10035000054A136A43F0010313627047024A536A65
:1003600043F001035362704700100240034A536890
:1003700023F0030303435360704700BF00100240A3
:10038000034A536823F4701343EA80435360704771
:1003900000100240034A536823F4803343EA0043C9
:1003A0005360704700100240034A536823F400333F
:1003B00043EA40435360704700100240034A5368C9
:1003C00023F4404343EA80335360704700100240F7
:1003D000034A536823F4605343EAC02353607047D1
:1003E00000100240034A536823F4E06343EA002309
:1003F0005360704700100240034A536823F0F00333
:1004000043EA0013536070470010024008B504200F
:10041000FFF77CFFFFF772FF0020FFF7A7FF032025
:10042000FFF774FFFFF76AFF0120FFF79FFF00202F
:10043000FFF7E2FF0320FFF7C1FF0420FFF7D2FF21
:100440000020FFF7C5FF022000F0DAF80720FFF7D1
:1004500097FF0120FFF79EFF0020FFF7A5FFFFF7A2
:1004600055FFFFF74BFF0220FFF780FF044B054AC3
:1004700005491360054A1160054A136008BD00BFB5
:1004800000A24A04000000200051250208000020BC
:1004900004000020034B98420CBF034B034B186829
:1004A000704700BF00380140040000200800002011
:1004B0000122430903F1804303F50433196800F076
:1004C0001F0082400A431A60704738B50C46054643
:1004D000FFF7E0FF00EB5403B3FBF4F3AB6038BD70
:1004E000C36808290CBF23F4805343F48053C360CE
:1004F0007047036923F440530B4303617047C3689B
:1005000023F4C0630B43C3607047C36823F00C033C
:100510000B43C3607047436923F440730B4343614B
:100520007047C36843F40053C360704738B504464E
:100530000D4600F00EF829462046BDE8384000F090
:1005400000B8C1F30801416070474068C0F308007B
:10055000704703681B06FCD5704703680B4214BF45
:10056000012000207047FEE77047000038B51A4AA6
:100570001A4B1B498B421AD300211A4A93421BD3B0
:100580004FF0E022D2F8143D174C43F40073174D9E
:10059000C2F8143DAC4212D3154C164DAC4212D3E6
:1005A000FFF710FE144C154DAC4210D338BD52F875
:1005B000040B43F8040BDDE743F8041BDEE754F8B3
:1005C000043B9847E6E754F8043B9847E6E754F8BD
:1005D000043B9847E8E700BF37060008000000200A
:1005E0000C0000200C0000200C0000200C0000205B
:1005F0000C0000200C0000200C0000200C0000204B
:10060000034A136823F0070303431360704700BFD6
:10061000002002404563686F20646573646520555F
:100620005341525431206120393630302062617597
:0706300064696F730D0A00FD
:0C06370000127A0000127A0000127A0013
:040000050800056D7D
:00000001FF
