:020000040800F2
:1000000000500020290200082502000823020008F1
:100010002302000823020008230200080000000059
:1000200000000000000000000000000025020008A1
:100030002502000800000000250200082502000833
:1000400023020008230200082302000823020008FC
:1000500023020008230200082302000823020008EC
:1000600023020008230200082302000823020008DC
:1000700023020008230200082302000823020008CC
:1000800023020008230200082302000823020008BC
:1000900023020008230200082302000823020008AC
:1000A000230200082302000823020008230200089C
:1000B000230200082302000823020008230200088C
:1000C000230200082302000823020008230200087C
:1000D000230200082302000823020008230200086C
:1000E000230200082302000823020008230200085C
:1000F000230200082302000823020008230200084C
:10010000230200082302000823020008230200083B
:10011000230200082302000823020008230200082B
:10012000230200082302000823020008230200081B
:10013000230200082302000823020008230200080B
:1001400023020008230200082302000823020008FB
:1001500080B582B000AF4FF4417000F055F84FF415
:100160000053002202210A4800F016F84FF4005113
:10017000074800F040F800237B6003E000BF7B6885
:1001800001337B607B68034A9342F7DDEEE700BFF3
:1001900000100140FF340C002DE9F0414FF00F0C2E
:1001A00000250768466843FA05F4E4071CD5072DC7
:1001B00094BFBE46B646ACB24FEA84048ABF203C28
:1001C000A4B2A4B20CFA04F82EEA080804F1020E54
:1001D00002FA0EFE01FA04F44EEA040444EA0804AA
:1001E000072D94BF274626460135102DDBD1076029
:1001F0004660BDE8F081C36801EA030221EA030119
:1002000041EA0241016170470122430903F1804341
:1002100003F50433196800F01F0082400A431A6096
:100220007047FEE77047000038B51A4A1A4B1B4961
:100230008B421AD300211A4A93421BD34FF0E0227B
:10024000D2F8143D174C43F40073174DC2F8143D17
:10025000AC4212D3154C164DAC4212D3FFF778FFC7
:10026000144C154DAC4210D338BD52F8040B43F872
:10027000040BDDE743F8041BDEE754F8043B984722
:10028000E6E754F8043B9847E6E754F8043B984700
:10029000E8E700BFBC0200080000002000000020CA
:1002A00000000020000000200000002000000020CE
:0C02B000000000200000002000000020E2
:0400000508000229C4
:00000001FF
